:1000000080480020D9240000C16E0000C5240000F3
:10001000C5240000C5240000C52400000000000025
:10002000000000000000000000000000B5250000F6
:10003000C5240000000000007D270000C52400004A
:10004000F5270000F5270000F5270000F527000040
:10005000F5270000F5270000F5270000F527000030
:10006000F5270000F5270000F5270000F527000020
:10007000F5270000F5270000F5270000F527000010
:10008000F5270000F5270000F5270000F527000000
:10009000F5270000F5270000F5270000F5270000F0
:1000A000F5270000F5270000F5270000F5270000E0
:1000B000F5270000F5270000F5270000F5270000D0
:1000C000F5270000F5270000F5270000F5270000C0
:1000D000F5270000F5270000F5270000F5270000B0
:1000E000F5270000F5270000F5270000F5270000A0
:1000F000F5270000F5270000F5270000F527000090
:1001000053B94AB9002908BF00281CBF4FF0FF317E
:100110004FF0FF3000F00CB8ADF1080C6DE904CEE3
:1001200000F010F8DDF804E0DDE9022304B07047C8
:10013000704700BF034613F8012B002AFBD1181AA1
:10014000013870472DE9F0478C468E46089E1546CB
:1001500004461946002B40F0D080724547D9B2FAC8
:1001600082F74FB1C7F120030EFA07FC20FA03F320
:10017000BD4043EA0C0CBC404FEA154EA8B2BCFB94
:10018000FEF8230C0EFB18CC08FB00F943EA0C43E5
:10019000994528D9EB1808F1FF3204D2994502D9C4
:1001A000A8F102022B44A3EB0903A4B2B3FBFEFCAB
:1001B0000EFB1C330CFB00F044EA0344A04214D9AC
:1001C0002C190CF1FF3304D2A04202D9ACF1020386
:1001D0002C44241A43EA02401EB1FC400023346040
:1001E0007360BDE8F0874246DDE76346F1E7002A29
:1001F00079D0B2FA82F3002B3FD01946C1F1200327
:1002000002FA01F52EFA03F20EFA01FE20FA03F3C8
:1002100043EA0E034FEA154E00FA01F4B2FBFEFC6E
:10022000AFB20EFB1C201A0C0CFB07F842EA00428E
:1002300090455AD9AA180CF1FF3004D2904502D942
:10024000ACF102002A44A2EB08029BB2B2FBFEFC16
:100250000EFB1C220CFB07F743EA02439F4246D9E0
:10026000EB180CF1FF3204D29F4202D9ACF102022A
:100270002B44DB1B42EA004202E0AEEB0203012208
:100280004FEA154EAFB2B3FBFEFC200C0EFB1C3345
:100290000CFB07F840EA034398452AD9EB180CF108
:1002A000FF3004D2984502D9ACF102002B44A3EBF5
:1002B0000803A4B2B3FBFEFC0EFB1C330CFB07F7D8
:1002C00044EA0344A74216D92C190CF1FF3304D297
:1002D000A74202D9ACF102032C44E41B43EA0040DC
:1002E0000F46114678E71F2188E76046ABE7624674
:1002F000BFE76046DBE76346EFE7734506D916B90B
:10030000002108466DE7C6E9000EF9E7B3FA83F766
:1003100087B9734501D3824207D8841A6EEB030371
:1003200001209C461EB900215BE73846FAE7C6E982
:10033000004CF8E7C7F1200CBB4022FA0CF51D4336
:1003400020FA0CF12EFA0CF30EFA07FE41EA0E0128
:100350004FEA154900FA07F4B3FBF9F81FFA85FED6
:1003600009FB18300B0C08FB0EFA43EA00439A45D0
:1003700002FA07F240D9EB1808F1FF3004D29A458F
:1003800002D9A8F102002B44A3EB0A0389B2B3FB04
:10039000F9F809FB183308FB0EFE41EA03418E45CC
:1003A0002CD9691808F1FF3304D28E4502D9A8F17F
:1003B0000203294443EA0040A0FB0298A1EB0E018E
:1003C0004145CE46434602D306D14C4504D2B9EB53
:1003D000020E68EB05030138002EA4D0B4EB0E0228
:1003E00061EB030101FA0CFC22FA07F34CEA030368
:1003F000F940C6E9003196E74046C5E74346D9E7EC
:1004000030B587B0CDE90323009101210191072385
:10041000002104468DF808108DF8143007489DF827
:100420001430826843F002038DF814309568234637
:1004300002226946A84707B030BD00BF9C8000007B
:100440001FB502238DF800008DF80110CDF804D0FF
:1004500002938DF80C3007489DF80C30826843F009
:1004600002038DF80C3094686223012201A9A04791
:1004700004B010BD9C8000002DE9F04383B000AFB4
:10048000EE23FB7105460C461646FFF7D9FFFA1D11
:1004900081462946622005F08EFF50EA0908FB7963
:1004A0001CD19C421AD1E9468AB06A46194BCDE963
:1004B00005364FF40073ADF82430174BCDE90754DF
:1004C00042F8103F154843464FF4335101F0F6F916
:1004D000CD4640460C37BD46BDE8F083E8468EB0B9
:1004E0006A460F490B90CDE909934FF40073ADF8BC
:1004F00030300C4BCDE90516CDE9075442F8103FDA
:100500000648002344F2404101F0D8F9C5464FF0B7
:100510000108DEE7B484000005000001E882000065
:10052000D0840000080000012DE9F04F4FF0804317
:100530008DB0D3F80044C3F8004402AF0C4A0D4814
:10054000032106F01CFC0C4A0A482346032106F04E
:100550001FFC0A4807F0F7FAA0B9094A054801212B
:1005600006F00DFC00202C37BD46BDE8F08F00BF23
:100570007D850000E88200009A8500009C800000D4
:10058000F3850000CE4D284607F0DDFA0028E4D0C0
:10059000CC4C204607F0D7FA0028DED02269A168AB
:1005A000136823F0010313600B684FF4202200212D
:1005B0002046984700240A2005F008FF07F11A0298
:1005C00021466A20BC76FC7605F0F5FE07F11B0299
:1005D000064601216A2005F0EEFEE8468AB0B97EA3
:1005E000FB7E02AADFF8E0C25062C2E9076306237D
:1005F000C2E905C142F8103FB44823464FF44351C5
:1006000001F05CF9C5462A69AC68136823F480538D
:10061000136023684FF430220C212846984732207B
:1006200005F0D4FE636807F1240128469847034685
:1006300018B997F82530C3F30013A54AA348DFF88B
:100640009482032106F0A4FB00233B777B770125EE
:1006500007F11C02FF21622005F0ADFE3B7F04463E
:10066000002840F09B81362B40F098813B7F362B51
:1006700040F0AF8107F11D02FE21622005F09BFED4
:100680003B7F7A7F914800920321934A06F08AFBD0
:1006900001210D20FFF7D4FE002504460A20BD7776
:1006A00005F094FE07F11E022946622005F083FE44
:1006B000BB7F8A4A009385482346032106F072FBDC
:1006C0004FF00008864E4546E94688B0736802AA96
:1006D00084494FF4007AC2E90513834BA2F81CA0A9
:1006E00042F8103F002379484FF4E65101F0E6F854
:1006F0007E4ACD4602210D20FFF7BEFE7C4A83468E
:100700000B211120FFF7B8FE7A4A4BEA000B882133
:100710001220FFF7B1FE784A4BEA000B402113206C
:10072000FFF7AAFE754A4BEA000B01211520FFF7DF
:10073000A3FE734A4BEA000B08210220FFF79CFE40
:10074000704A4BEA000B3F212A20FFF795FE747890
:100750006D4AA4F12303594259414BEA000BC901E8
:100760002320FFF789FEA4F12402514251414BEAB4
:10077000000B664AC9012420FFF77EFE4BEA000BFE
:10078000A4F1250041424141614AC9012520FFF7FA
:1007900073FE604A4BEA000B0F210920FFF76CFE45
:1007A0005D4A4BEA000B0E210A20FFF765FE1E2171
:1007B0004BEA000B0A20FFF743FE584A317820200D
:1007C000FFF75AFE564A4BEA000B00212120FFF7A3
:1007D00053FE544A4BEA000B00212220FFF74CFE47
:1007E000514A4BEA000B00210D20FFF745FE5BEA62
:1007F000000300F0F0804D4A3448012106F0BFFAB2
:100800004FF0040B4FF47A7005F0E0FD082307F178
:100810001F020421622087F82330FD7787F82050DB
:1008200087F8215087F82250BD8487F8265005F0BC
:10083000C2FD07F1200278610621622005F0BBFDB0
:1008400007F1210238610721622005F0B4FD07F1AC
:100850002202F8600021622005F0ADFD07F12402BC
:10086000B86007F1230103236220FFF7C9FD97F861
:10087000253097F8242078601B0243EA024397F85A
:10088000262097F82200C7F800D01343284A2949A8
:1008900097F81FA097F8219097F820E010F0080F24
:1008A00094B008BF1146C0F3C00C02AAD162D90CA3
:1008B000C3F3120353637B6993633B69D3633BE0E8
:1008C000808000006480000006860000E88200004E
:1008D0004A86000073860000B4860000E1860000AE
:1008E000488300001B8700000300000130870000E0
:1008F0003E8700004B870000588700006587000096
:100900006D8700007A870000868700008E870000D0
:10091000968700009E870000AC870000BA87000021
:10092000C4870000CE870000D8870000E58700005C
:100930006C8500003F850000FB681364BB6853644E
:100940007B6893642F4C116340F20573A2F84C301E
:100950002D4BC2E9054AC2E9079EC2E9090C42F8DB
:10096000103F2A48002347F6C04100F0A7FFBBF123
:10097000010BD7F800D07FF445AF02210D20FFF71F
:100980005FFD08F101084FF4FA7005F01FFDB8F1A2
:10099000040F06F108067FF497AE91E66E468AB022
:1009A00002AAC2E907430523C2E9058542F8103FC0
:1009B000164800234FF4225100F080FF6420B54612
:1009C000013505F003FD0B2D7FF442AE002C3FF402
:1009D0004DAE0F4AC2E50F4A0F4988B0002C08BF40
:1009E000114602AA0D48A2F81CA0C2E905010C4953
:1009F00042F8101F05484FF4E65100F05FFFCD4666
:100A0000FEE600BF2D8800000F000001E882000014
:100A1000948600002E850000198500000D880000D6
:100A2000030000012DE9F04F91B08407009302F01C
:100A300004030293C2F3C20303F10103DDF868A0CB
:100A4000039205460E46059340F09D81041D002843
:100A50004AD101F00706341DC6F10806009B0027A5
:100A60005A1E4FF004084FF0FF3301930497B94624
:100A7000BB4643460DB1009921600598002800F35C
:100A8000D78090480099814203D38F488142C0F0BB
:100A9000CF80039911F0020CA4EB050040F0D68042
:100AA000B9F10F0F00F2CF80002D00F0D68009F1D0
:100AB00040010DEB010EC0F3870001990EF8200CE8
:100AC0000EF8101CBCF1000F00F0C38060F07F0036
:100AD0000EF8200C013709F10109C5F108010434B1
:100AE00006914FF6DA7E8CE00729B7D86FF01B002D
:100AF00011B0BDE8F08F7A285BD84B280FD8472873
:100B000057D829282ED8252850D052D8202818BFA9
:100B100023280CBF4FF0010B4FF0000B71E04C3855
:100B20002E2846D8DFE800F06D454545454545454A
:100B3000454545454845454545454545455645484E
:100B4000485656566D486A456D4518481845457FC4
:100B50007C48454548457C0000204FF0000B4FF095
:100B6000040835E02A38C0B2012101FA00F010EA89
:100B70000E0F46D110F0625C2CD110EA010B40D070
:100B80006046013C4444B4FBF8F408FB04F425B18E
:100B9000A3EB050CA444B445A8D8002870D005994F
:100BA000013905915AF8041B009163E70199013955
:100BB00001914FF0000B24E012F8010C6C2834D1A5
:100BC00012F8023C00206C2B8346C8D14FF0080875
:100BD0004346D6E70AF1070A2AF0070A0734FAE87B
:100BE00002BC24F0070435B106982044B0423FF619
:100BF0007DAFC4E900BC08344FF0000B4FF008088B
:100C0000434612F8010F002853D0BBF1000F7FF4C8
:100C100072AF2528F5D1019B013301934FF0010BF1
:100C20004FF00408ECE7584697E700208346A8E712
:100C3000039988077FF551AF601B4FF0010CB0F5A9
:100C4000007FFFF42DAF6FF0150051E74FF0000C5F
:100C5000F5E70498013004903DE7BCF1000F01D0A6
:100C6000013638E70298023600287FF434AF009846
:100C7000CDE90632FFF75EFADDE9063206442AE7DF
:100C8000042B08D10AF1040015B1DAF80010216034
:100C900004348246B5E70AF1070323F0070303F1A2
:100CA000080A1DB1D3E90001C4E900010834082392
:100CB000A7E7631BB3F5806FC5D23DB9A6F1080461
:100CC000E01815E7E07F0000A0920000029A28607B
:100CD0009B082B709DF81030AAB1EB70AF702FB14C
:100CE00008A80022C5F1010C91450ED1C5F1010300
:100CF0000DF120084FF0000A01930DF1300BD145A2
:100D000012D1601BF4E66B70E8E710F8013B19069E
:100D100008D50CEB040EB64503F07F033FF6E6AEB4
:100D200004F8013B0132DFE71FB198F90020002AE7
:100D300017DB029BD3B11AF80B2004F8012B002219
:100D4000019B18191044B0423FF6D0AE98F800004D
:100D500004F8010B00990392204607F0BCF8039AAF
:100D600014440AF1010A08F10108C8E798F80020C4
:100D700055F822300093029B45F822300098FFF787
:100D8000D9F9421CDCE76FF00D00B1E62DE9F04F18
:100D900097B000AFC7E90A3205468A4649B90378D9
:100DA0004678807800EB83002844564524D8A0EB91
:100DB000050AD7F8803095F80280D7F8804003F014
:100DC0000103FB61EB787B62B8F1000F0CBF0024DC
:100DD00004F001041BB1D7F880309A0715D4A4B9E8
:100DE000FB6A1BB1BA6A51462846984756463046B8
:100DF0005C37BD46BDE8F08F441C2046FFF79AF9EA
:100E0000013020440AF1010ACFE7D7F88030C3F35C
:100E1000C0033B622B78BB619B003B616B687B61CD
:100E2000BB6905EB830BFB6A002B77D15646D84490
:100E3000BCB11C461BF8013B55F82300FFF77AF9BB
:100E4000D7F88430013043B1D7F88830A34282BF4D
:100E5000D7F8843023F814000134C3450644E9D19F
:100E6000D846D7F8803013F0050F0CBF4FF0020BB7
:100E70004FF0010B4FF000097B6A9945B7D298F803
:100E8000013055F823A0AE4B9A4508F10208C0F096
:100E90004B81AC4B3A6A9A452CBF002301230AB31D
:100EA00018F8021C7869FB6205F03EFBFB6AC8B1CA
:100EB000EA468AB06A46A44B05937B69CDE90631C0
:100EC0004FF40073ADF82030A04B42F8103FA0481B
:100ED00000234FF4125100F0F1FC023ED54609F117
:100EE0000109C9E723B1FB6933B9A6EB0B06F6E7A5
:100EF000D7F880309B07F2D55046FFF71BF9D7F89B
:100F000084304BB1D7F888309C423FBFD7F884205B
:100F1000431C22F8143001340644E0E7002C69D168
:100F2000B8F1000F6CD0D7F8803058076BD5C146A8
:100F300007F148004246594606F0CDFF0BEB080387
:100F4000FB6000220233796A8A425ED3D7F88020A0
:100F500095F801B0F969920704EB0B03DBB254BFBB
:100F60004FEA59020022002940F0A680D7F88010ED
:100F700011F0040F14BF494600216B70A970EA708C
:100F80003969BA6AFB6A28469847061EFFF62FAFF2
:100F9000BB692B707B6AEB704946BA6AFB6A85F8BD
:100FA00001B085F8028007F148009847B0F10009C8
:100FB000C0F2B6803B697A6A786A03EB4201FB684B
:100FC000BA6A414403EB4000AAEB0101FB6A98476F
:100FD0000028C0F2A780B14409EB00064FF0000BD7
:100FE00007F1380AA34569D30021BA6AFB6A0846AB
:100FF0009847FCE6444607F138004FF0000999E7AE
:101000004446C1469AE7A14698E713F8016CDFF819
:1010100030C155F8260013F8021C6045C0F08A80E4
:10102000DFF820C16045386A2CBF4FF0000B4FF04D
:10103000010B38B17869C7E9013205F075FAD7E9D3
:101040000132F0B9BBF1000F1ED0F96949B1611C42
:1010500004F1280007F13004041904F8206CCCB224
:101060000FE0D7F8801049070BD509F1280007F1E8
:10107000300C09F1010100EB0C0909F8106C5FFA62
:1010800081F9013202335EE7D7F880008007DED4B1
:1010900009F1280C07F1300EF44409F101000CF8B5
:1010A000101C07F1580151FA80F009F102095FFAAA
:1010B00089F900F8106CE4E700215EE71BF80A30BC
:1010C00087F8373055F82390D7F884302BB3D7F80A
:1010D00088309B4521D2D7F8843033F81B80BA6A18
:1010E000FB6A012107F13700984700281ADB064404
:1010F000B8F1000F06D14846FFF71CF800F10108CF
:101100001FFA88F8BA6AFB6A4146484698470028A1
:1011100008DB06440BF1010B64E74FF00008DEE743
:101120004E4664E6064662E63B6A002B3FF4E0AEBC
:101130000023B5E6386A0028A6D04FF0000B79E707
:10114000E07F0000A0920000188900000400000168
:10115000C8820000014B1860704700BFC02000200B
:1011600080B505460E461746984604F04BFB0346ED
:1011700001F052FBDFF81890044649F8003042466F
:1011800030463946A84754F8090001F0E1FA00BF9B
:10119000080000002DE9F047058B04462807174694
:1011A0000CD501290CBF45F0100545F0200525831D
:1011B00087F31188BFF36F8FBDE8F087022905F030
:1011C000070540F09480204605F045FC052864D8CA
:1011D00001A353F820F000BFB1110000EF1200008E
:1011E0009B1200005D1200007712000089120000BF
:1011F00001F007035A1F012A1FD8002221F007011E
:10120000062BD4F8008089B2C4E9002209D14346F4
:1012100003E0628B013262831B68002BF9D141F03D
:1012200002012183204605F016FC4FF0000900283A
:101230006DD041F02001218369E0042B0AD121F017
:10124000070189B22183204605F005FC10B141F069
:10125000200121834FF00008C14658E02369D3F8EC
:101260000090238B23F0070343F0060323834FF002
:10127000000846464BE02369D3F80490238B23F003
:10128000070343F00403F1E72369D3F80890238BA5
:1012900023F0070343F00503E8E74FF00008C146D9
:1012A000E7E7012243F00803238387F31188BFF3A4
:1012B0006F8F002A3BD1B8F1000F4AD1B9F1000F6E
:1012C00002D02D492046C847EFF31187202383F32E
:1012D0001288BFF36F8F238B23F008039BB2238305
:1012E000D9063FD523F01002228303F00705666973
:1012F000218B002EBFF67CAF0023D4F8008021F0B4
:101300000701C4E9003341F0010121839946238B91
:1013100003F0070AAA4502D0A268002AC1D1B8F199
:10132000000F02D1B9F1000FDAD00022BAE7A168AC
:101330000029C0D00D680029BDD04F683346524601
:101340002046B8471DB12B6829461D46F3E72B46BA
:10135000FAE74146334652462046D8F8008005F069
:10136000A6FBA8E79A067FF523AF23F0200222838D
:1013700003F0070527E700BFDB6A00002DE9F0470F
:10138000DFF85480044607464FF0010994FAA4F5AB
:10139000B5FA85F509FA05F32E0108EB05156FEA94
:1013A000030A24EA03042B7B63B158F806301B6957
:1013B0006BB94644042273682846196807EA0A078D
:1013C00005F06DFC002CE1D13846BDE8F0872846D9
:1013D00098470028F6D1ECE73083000010B50F499C
:1013E0000F4888B0002206F069FD00220023CDE9F5
:1013F000062300240E23CDE90334CDE90144094B33
:10140000094900944FF44072084803F083FF0849EB
:10141000064806F00CFC204608B010BD351400004C
:10142000C8320020651700008037002040220020CD
:10143000D7890000014803F07FBD00BF30220020A3
:101440002DE9F047804621480F4605F008FC064686
:10145000002833D000252846BDE8F087237B83B1E0
:101460002368DB680BB120469847636883F80690D1
:1014700023681B69D3B9636804221968204605F004
:101480000EFC013610345445E8D3B8F1000FE2D019
:10149000002DDFD02846FFF771FF0546002FF7D05B
:1014A00000214FF4A47006F05CFCF1E72046984759
:1014B0000028E0D009FA06F31D43E2E7044CDFF808
:1014C00014A005464FF00109DDE700BF703500208C
:1014D0003083000040830000014B53F82000704728
:1014E0007C83000008B5034608462BB1044A13600C
:1014F00000F044FC002008BD6FF01500FBE700BFC2
:10150000C420002010B5044C237813B9034803F01D
:1015100013FD0123237010BD2E3700203022002040
:1015200010B504460B4805F09AFB5CB1BFF35B8F26
:10153000094B53E8001F013943E80012002AF8D193
:10154000BFF35B8F054804F081FC0548BDE81040FF
:1015500003F0F2BC683500206C350020C832002052
:1015600030220020064BBFF35B8F002253E8000FB0
:1015700043E800210029F9D1BFF35B8F704700BF1A
:101580006835002070B5FFF7EDFF084C084E0546A2
:10159000B44200D370BD63685B792BB123685B688C
:1015A00013B12946204698471034F1E730830000F4
:1015B0004083000010B5044C0449204605F0E0F8D3
:1015C000034B1C6010BD00BFBC21002068830000DD
:1015D000603500200D4A0E48002310B513700D4AE7
:1015E00013600D4A4FF400411360FFF77BFFFFF7D4
:1015F000E1FF0A4B0A4918468B4200D310BD1A1A64
:101600005C681211013222711033F5E72F37002088
:101610005B6C0000683500206C35002030830000D2
:1016200040830000014600220148002305F0C9B8AC
:10163000BC210020014805F060B900BFBC2100209A
:10164000024B0146186805F0B3B900BF60350020B1
:10165000014805F0E8B900BFBC21002070B52A4B55
:101660001B78002B4ED0FFF7E5FF0446002846D13B
:10167000264B274D1B68002B19DD06F01DFC4FF48F
:101680007A76A0FB063206FB0121D5E90020DB0BB0
:1016900043EA41439B1A4FEAD13140F2E93261EB10
:1016A0000001934271F1000101D3FFF76BFFD5E90F
:1016B000003213F57A7342F10002C5E900320CB32F
:1016C000BDE87040FFF7C4BF6B685B7923B12B683E
:1016D00021461B68284698471035B542F4D320466A
:1016E000FFF7AEFFBFF35B8F0A4B53E8001F0139D2
:1016F00043E80012002AF8D1BFF35B8FB8E7064D2C
:10170000064EEAE7002070BD2E3700206835002025
:10171000C03200206C350020308300004083000080
:1017200070B50D4D297861B90120FFF789FE0B4C8A
:101730000B4EB44206D3FFF791FF0028FBD10123E3
:101740002B7070BD63685B791BB1236820469B6872
:1017500098471034EDE700BF2F370020308300009A
:101760004083000000212DE9F8430846FFF768FE9A
:10177000044648B340F267684FF0000901F04CF8A6
:101780001A4B1B4A1B58136033B11A4B1B68092BA9
:1017900002DD194803F0D0FB184F002544B1204664
:1017A000FFF7ECFD044618B94FF0FF384FF0FF3952
:1017B000FFF754FF064628B9B5B90F4842464B46D5
:1017C00003F0EEFB3546E9E74FF0FF384FF0FF3905
:1017D000D4E72B689B691BB1002211462846984725
:1017E0001035BD42F5D3E8E7054DFAE708000000E3
:1017F000643500206C35002030220020408300003A
:101800003083000013B5184805F029FA174B1B78F0
:1018100073B1EFF31184202383F31288BFF36F8F2A
:10182000FFF71CFF84F31188BFF36F8F02B010BD68
:101830000F4B1B68002BF9D050B900220023CDE9D3
:1018400000230C484FF40042002304F0C7FAEDE7F0
:101850000928EBD1074804F0F9FA074802B0BDE8BF
:10186000104003F069BB00BF6C3500202F3700200B
:1018700064350020C83200203022002010B5064B0D
:101880001B68044698472146A060044805F016F8F6
:10189000BDE81040FFF7B6BFC4200020BC210020E7
:1018A000044A054B9B1AB1EBD30F34BF52F83100F9
:1018B00000207047C8820000308300002DE9F04FFF
:1018C0008FB004AFC1F34A26B8600D4690467B60E6
:1018D0000C0D002E61D04FF000090A234FF0040BCD
:1018E00007F1140AFE60C7E90799C7F8249000932E
:1018F000CDF808B0CDF804A007F11C03F9684A46FA
:101900004046FFF743FAB0F5006F03461CD36C4620
:101910008AB0D8F8041004AB2448C3E9050140F2AA
:10192000FF71D9611A464FF400711984204B42F8B7
:10193000103F20484B464FF41251FFF7BFFFA5461A
:101940002C37BD46BDE8F08FC0F30A0604F117003E
:10195000184420F0070080083B60FFF763FE66F341
:101960005325044680B13B68134A00F11001C7E9D2
:101970000839F961CDE901AB0A230093F96807F151
:101980001C034046FFF702FA66F353257B68B968EB
:101990002A46204605F0A3F9D2E704F1170020F00B
:1019A00007008008FFF73EFE0446EDE7EC890000E3
:1019B00004000001F0820000B16C00002DE9F04F3E
:1019C00087B0DDE9127ADDE9106B054688461446DA
:1019D0009946BFB11021CDF800A03B465A460020E1
:1019E000CDF814A0FFF71EF8B0F5006F01460BD339
:1019F000194A1A4840F2FF73022107B0BDE8F04FC0
:101A000005F0C6B93946384604F0070305F0070467
:101A1000E40044EA831444EA402444EA065406F10C
:101A20001700084420F0070080080391FFF7FAFD33
:101A3000054640B13FB10399CDF800A03B465A4658
:101A40001030FEF7EFFF4B4622464146284607B0CE
:101A5000BDE8F04F05F043B92B8A0000F08200008A
:101A6000406820B1034BC01A40F3CF0070474FF0DD
:101A7000FF307047C88200000EB403B503AB0146C7
:101A800053F8042B0448019301F04CF802B05DF8C0
:101A900004EB03B0704700BFF36D0000CA0605D425
:101AA0008B064CBF02490349FFF7E6BF704700BFF2
:101AB000648A0000638A00002DE9F04F89B09846DF
:101AC000159B0693DDE916A39DF85090189F05928B
:101AD00004460D460493B9F1000F00F0B08007F4FE
:101AE0008073079305F0D9F807F0020B024600282F
:101AF00074D078492046FFF7BFFF0646BBF1000FC0
:101B000008D017F0440F6BD173492A462046FFF7DF
:101B1000B3FF064407F0010353B1704B704953F80B
:101B20002920704B2046002A08BF1A46FFF7A4FF61
:101B300007F48073002B07F0080318BF4FF000086C
:101B4000002B79D0684B694953F829202046FFF7CC
:101B500093FF0546059B2BB165491A462046FFF7C2
:101B60008BFF0544B8F1000F05D06249424620467C
:101B7000FFF782FF054460483544069B1BB15F496F
:101B8000224604F0A0FC049B002B00F08E80DDF8C0
:101B900010803946B8F1100F204628BF4FF01008CA
:101BA000FFF77CFF0026B54250DC002633461AF8CA
:101BB000032053492046FFF75FFF0136102E4BD01C
:101BC000710703D14F492046FFF756FF464533467C
:101BD000EDD34D492046FFF74FFFEEE706468DE770
:101BE0004A4B1868002894D0494B4FF47A7B1B6805
:101BF000B5FBF3F54FF46163B5FBF0F100FB115554
:101C00000BFB05F54FF03C0CB1FBF3F203FB12119B
:101C1000B5FBF0FEB1FBFCF300FB1E550CFB1311F2
:101C20000BFB05F50091B5FBF0F53A49CDE901E56F
:101C30002046FFF721FF6CE707F008058AE7B8F1B7
:101C4000010F0CBF2C4834484D4696E72D492046DD
:101C5000FFF712FF0136A6E7304920460026FFF7BE
:101C60000BFF33461AF803202D49A2F120035F2B06
:101C700028BF2E222046FFF7FFFE0136102E0DD082
:101C8000720703D11F492046FFF7F6FEB0453346E1
:101C9000E8D81C492046FFF7EFFEEEE7049BB3EBC4
:101CA0000803C24404937FF472AFB9F1000F0AD065
:101CB000FB0704D50B4A0A492046FFF7DDFE3946EB
:101CC0002046FFF7EBFE204609B0BDE8F04F05F0D7
:101CD00083B800BF6B8A00006F8A00008C8300000D
:101CE0002A880000668A0000A0830000948A000011
:101CF0009A8A00009E8A0000F36D0000252B0000E8
:101D0000A38A0000AB8A0000A98A00007835002071
:101D100074350020788A0000296E0000AD8A00002A
:101D2000AF8A000073B542F20F738B4228BF0B4697
:101D300005680F4A04460521684604F0CDF863683B
:101D40000C495B6806460B22284605F037F86368A5
:101D50003246694628465B6805F030F863680649F4
:101D60005B681B22284605F029F802B070BD00BF51
:101D7000EF8B0000689200004C920000074A00219F
:101D80000123904206D8064A01B901231360054B8E
:101D90001860704740085B000121F2E740420F00E5
:101DA0007435002078350020014B01221A707047ED
:101DB00030370020014B002019607047903500201B
:101DC0000148FFF7AFBF00BFD083000010B5064B3E
:101DD00018680C46FFF780FB21460346BDE810401B
:101DE00002480F22184700BF90350020D083000022
:101DF000F8B5094D094B0A4ED5E9004701221A7082
:101E00000CB92C60F8BD214630463A4600F01EF869
:101E1000241A0644F4E700BF84350020313700203F
:101E20003237002010B9074B18707047064B1B78EB
:101E30001BB141F2883005F06ABEA420002105F0F4
:101E400090BF00BF30370020313700202DE9F04728
:101E5000DFF88090204E80460F46042599F8004018
:101E6000ACB905F047FE3A4682464146204602F0AC
:101E700053FD0446504605F045FEECB10123337096
:101E800099F800307BB93C462046BDE8F0873A46D9
:101E90004146002002F040FD0446EEE72846FFF7E9
:101EA000C1FF6C1E2546002002F0C6FD0028EAD0C6
:101EB0003378002BF2D1E6E7337833B1013D284681
:101EC000FFF7B0FF3378002BC8D13378002BDAD07E
:101ED000DAE700BF3137002030370020014B0360C4
:101EE00000207047E083000008B5044804F03BFB85
:101EF000034804F038FB002008BD00BFE28A000060
:101F0000178B000008B50348034A0021121A04F099
:101F1000CFFF08BD40220020583700200748084A5C
:101F2000084908B5121A04F0C5FF0748074A0849CE
:101F3000BDE80840121A04F0BDBF00BFC020002059
:101F400040220020A8920000B8200020C0200020DD
:101F5000A09200002DE9F047064600AF0C4600298C
:101F600036D0E9468AB0D1E90012A3686D4621480F
:101F7000E8464FF0050ACDE90501CDE9072348F809
:101F800010AF1D48424600234FF42151FFF796FC45
:101F9000CD46D4E903126369AD461848C5F810A0D0
:101FA000C5E90501C5E907231348002342464FF45C
:101FB0002151FFF783FCCD46E369114A0E48012108
:101FC00004F0E6FEA3690F4A0B48012104F0E0FE8D
:101FD000012E07D1EFF305830B4A0748103B31462A
:101FE00004F0D6FE2146304602F056FDBD46BDE85F
:101FF000F08700BF448B000008830000738B000053
:10200000A28B0000B18B0000DF8B000030BFFFF718
:10201000FDBF00BF2DE9F0410B4EDFF8308006EB2D
:102020000807CC1B054632460949204605F053FFF8
:10203000A01942460021083C05F05BFF2C6707F120
:102040000800BDE8F08100BF0000000004000000AF
:102050004083000010B5204C2049214804F037FF90
:10206000A36A990136D51E481E4904F030FF1E2090
:10207000A36ADA0104D51A481B4904F028FF1F207F
:10208000154CA36A1B0304D51548184904F01FFF1B
:102090002120A36A590304D51148154904F017FFFC
:1020A00022200D4CA36A9A0304D50D48114904F06F
:1020B0000EFF2320A36ADB0304D509480E4904F070
:1020C00006FF2420044A936A6FEA03436FEA13432E
:1020D000936210BD1D20CBE700ED00E0F28B000005
:1020E000088300000A8C00001D8C0000378C000063
:1020F000558C00007A8C0000948C000070B5064668
:102100000D46284C2849294804F0E1FEA36AD90469
:102110003CD52648264904F0DAFE1720A36A1A05A2
:1021200004D52248234904F0D2FE18201D4CA36A8E
:102130009B0512D51D48204904F0C9FEA36BA26A75
:10214000100409D51D4A1948012104F021FE1EB1D1
:10215000A36A23F40043A3621920124CA36A590511
:1021600004D51248164904F0B2FE1A20A36ADA0513
:102170000ED50E48134904F0AAFE1B20094A936AA3
:1021800043F47F43936200232B7070BD1620C5E794
:10219000A36A9B04F2D505480B4904F098FE1C2065
:1021A000ECE700BF00ED00E0BF8C000008830000FA
:1021B000D58C0000E68C0000F98C0000128D000028
:1021C000278D0000428D00005A8D00002DE9F84354
:1021D000804689461746354D3549364804F077FE26
:1021E000AB6ADE0627D53449324804F070FE11246C
:1021F000AB6A1D0704D531492E4804F068FE12244D
:102200002A4DAB6A980718D52D492A4804F05FFE7D
:102210006E6BAB6A190646D52A4A26483346012119
:1022200004F0B6FDB9F1000F03D0AB6A23F08003D0
:10223000AB62132403E01024DAE76FF015061B4DA0
:10224000AB6ADA0704D520491A4804F040FE14248A
:10225000AB6A9B0604D51D49164804F038FE1524C8
:10226000124B9A6AD50602D49A6A90070AD55B681F
:10227000190507D54146304600F020FA10B180F329
:1022800009880224094B9A6A920642BF5A6A22F4CC
:1022900000525A629A6A42F0FF029A6200233B702F
:1022A0002046BDE8F8836FF01506C2E700ED00E0B8
:1022B000898D0000088300009F8D0000E68C0000DF
:1022C000D28D0000EA8D0000008E00005A8D0000C3
:1022D0002DE9F041684B8AB0D3F8048000AF044682
:1022E000C8F30806002585F31188BFF36F8F02F04D
:1022F0007F43B3F17F4F07D102F00C03082B12D1BB
:102300005E495F4804F0E3FD00252C460023FB7185
:10231000F31E092B00F28F80DFE803F00A85888125
:102320008D8D8D8D8D8B10074CBF0C460125EDE7F3
:1023300054495348504E04F0CAFD0023FB71F36A20
:102340009A0705D550494E4804F0C1FD00232DE001
:10235000F36A002B01DA4D49F5E7F36A5B00F5D526
:102360004B49474804F0B3FD7369A26943F4807395
:102370007361BFF34F8FBFF36F8F32F8023C726906
:1023800022F480727261BFF34F8FBFF36F8F03F43B
:102390007F42B2F55F4F2BD1DBB2022B28D12368ED
:1023A0003C4A3748012104F0F3FC2368FA79DAB992
:1023B00007F1080604F1200C20686168324603C268
:1023C000083464451646F7D17A6A002D50D0C2F31E
:1023D000080121B96FEA52226FEA42227A6207F1BC
:1023E00008011846FFF7B6FD2837BD46BDE8F08165
:1023F000214B9A6AD2B22AB1FA1D01212046FFF779
:10240000E5FE0EE09A6A12F47F4F04D0F91D012018
:10241000FFF774FE05E09B6AB3F5803F96D3FFF7A4
:1024200019FE0346C2E7FA1D0021E7E7F91D002067
:10243000EEE7194987E7194A194B18F4F87FE8467F
:102440008AB008BF13466A461649CDE905134FF412
:102450000073ADF82030103E134B079642F8103F42
:10246000074800234FF41151FFF728FAC5466DE7DE
:102470006FF30802B2E700BF00ED00E04D8E0000F0
:1024800008830000788E00008F8E0000B08E000060
:10249000BE8E0000DD8E0000F98E00001F8E000051
:1024A000348E00001D8F000004000001044B5A69A7
:1024B00042F010025A615A6922F008025A617047CC
:1024C00000ED00E0EFF30880EFF3098101B57246FB
:1024D000FFF7FEFE01BD00BF002080F31488BFF3AC
:1024E0006F8F0F4880F3088801F0E0FB00200D4952
:1024F0000860BFF34F8F00F02BF8202080F3118885
:1025000009484FF40461401880F30988EFF3148000
:102510000221084380F31488BFF36F8F00F09EF808
:102520008048002094ED00E0C03A00200749D1F82F
:1025300090200023C2F307221846934200DB704725
:10254000C1F89830C1F8A0000133F6E700ED00E0D3
:1025500008B572B6002383F31388FFF7E7FF144B27
:102560004FF0FF32C3F88020C3F88420C3F88820DE
:10257000C3F88C20C3F89020C3F89420C3F89820A7
:10258000C3F89C20C3F88021C3F88421C3F88821B4
:10259000C3F88C21C3F89021C3F89421C3F8982183
:1025A000C3F89C2162B6BFF34F8FBFF36F8F08BD96
:1025B00000E100E01EF0040F0CBFEFF30880EFF322
:1025C0000980816911F8021C0229FFD001B5724609
:1025D00004F072FC01BD00BF40B2002807DB044AD2
:1025E0004109012300F01F00834042F82130704769
:1025F00000E100E0054B420900F01F0053F82220E3
:10260000012303FA00F01040704700BF00E100E032
:1026100040B20028A8BF00F1604001F10101B8BF3D
:10262000064B4FEA4111ACBF00F5614000F00F00CE
:10263000C9B2B4BF195480F80013704714ED00E01C
:10264000044B054A23F07F039360BFF34F8FBFF322
:102650006F8F70470000000000ED00E008B5FFF745
:10266000EFFF074AD2F8883023F47003C2F88830AD
:10267000FFF748FCFFF752FC00F0B0F802F032FB25
:1026800000ED00E042F8203C009B42F81C3C0A4967
:10269000019B42F8183C029B42F8143C21F00101D6
:1026A0004FF0807342F8043C42F8081C0023203AA3
:1026B00002654367704700BF61110000094A034685
:1026C000906870B113F1160F006E05D0A0F14002B2
:1026D000934205D3834203D2814228BF0020704732
:1026E00000207047F836002008B515460B4A0C4B01
:1026F0009060026F1A600E4600F0A0F82C4686F338
:1027000009880020034B984720460021002200231F
:10271000014C2047E56E000061110000F8360020F2
:1027200094350020014B10221A61704700ED00E043
:10273000054B5A699B689A421FBF044A536843F08D
:1027400080535360704700BFF836002000ED00E072
:10275000084B9B6883420BD1EFF3058343B1064BD3
:102760005A6842F080525A605A6A22F400425A6211
:1027700003F04EB8F836002000ED00E014498A68F6
:102780004FF030001044EFF3098C80E8F01F202058
:1027900080F31288BFF36F8F0E4F4FF000664A69C7
:1027A0008A603E60106F0C4C2060506F00235367AE
:1027B00080F3118804B5104600F040F8BDE80440ED
:1027C00002F1300090E8F01F8CF309887047000098
:1027D000F836002004ED00E0943500200448002382
:1027E0002021C2180133302B82F80013F9D1704731
:1027F00000E100E008B5EFF30583064A103B02EB69
:10280000C30152F8330049688847BDE80840FFF724
:102810008FBF00BFD48000000148006870470000EF
:1028200094350020024B034A0348012100F08AB886
:102830000000022000000020E0830000036E054A33
:10284000403B1360044B4021C2E9011310460121B3
:1028500000F082B89835002000000B1508B503463B
:102860001048D0F89020C2F30722013A934207D9CA
:102870000D480E4A012104F08BFA6FF0150008BDD7
:10288000C0F898300A6822F01F021A4342F0100282
:10289000C0F89C208A6842F00102C0F8A0201846C7
:1028A000EDE700BF00ED00E000830000348F000082
:1028B000F0B50E4685B01F4604460025B5420DDA38
:1028C000606810B397B1431E18420AD0104A1148ED
:1028D0002B46012104F05CFA6FF01502104605B09A
:1028E000F0BD1F28F2D921680B42EFD12368019374
:1028F00004F01BFBA36801A90343D0B20393FFF7C5
:10290000ADFF10F1160FE7D0421C01350C34D5E7AE
:102910005A8F000000830000044B0522C3F8942066
:10292000BFF34F8FBFF36F8F704700BF00ED00E024
:10293000BFF35F8F024B0022C3F89420704700BFA3
:1029400000ED00E010B5034C01232278FFF7B0FF43
:10295000207010BD4237002008B50B4A00231278C2
:10296000FFF7A6FF10F1160F07D0084A0021D2F892
:102970009030C3F30723984200DB08BDC2F89800EB
:10298000C2F8A0100130F2E74237002000ED00E06D
:102990002DE9F0435D485E49D0F890300C68C3F3F0
:1029A00007239C4285B000F2AE80FFF7C1FF496863
:1029B0000022944201F10C011AD1564F564D3C7041
:1029C0006846FFF78BFA554C554E81464FF000088C
:1029D000C14520D13B784D490020D1F89020C2F369
:1029E00007229342C0F28980FFF796FF002050E053
:1029F000C0F8982051F80C3C23F01F03134343F018
:102A00001003C0F89C3051F8043C43F00103C0F8B7
:102A1000A0300132CDE7009800EB08114FEA081C06
:102A2000CB682340B3F5000F49D00BD8B3F5001F96
:102A300032D0B3F5800F37D0B3F5801F14D008F132
:102A40000108C5E7B3F1007F42D0B3F1805F48D001
:102A5000B3F1807FF3D150F80C3088684A6804F0F5
:102A600064FA40F0887009E050F80C3088684A68D1
:102A700004F05BFA40F0885040F43020039001A944
:102A80003878CDE90123FFF7E9FE002831DA6FF04D
:102A9000150005B0BDE8F08350F80C3088684A682E
:102AA00004F043FA3043E9E750F80C3088684A688C
:102AB00004F03BFA40F0C06040F40030DEE750F82C
:102AC0000C3088684A6804F030FA40F08270D5E72C
:102AD00050F80C3088684A6804F027FA40F48020E7
:102AE000CCE750F80C3088684A6804F01EFA284396
:102AF000C4E73B7801333B70A1E7C1F89830C1F8D7
:102B0000A000013369E74FF0FF30C2E700ED00E0BD
:102B1000EC83000042370020000002110000F0FFAB
:102B200000000811F0B587B007460E461446002194
:102B3000102268461D4605F0DCF902238DF80230AC
:102B40002A46054B019321466846CDE9047603F0F9
:102B5000EDF907B0F0BD00BF4B6F000008B5024BA8
:102B60001B689847002008BDA4350020034B044A89
:102B70001860937843F0020393707047A4350020E7
:102B8000C820002008B50649064821F00701C1F118
:102B9000005202F5003203F055FC002008BD00BFD2
:102BA000074D0020A8350020044A0123C2F8403513
:102BB0004FF080420020C2F87835704700E00140B5
:102BC00048B1054B054A1B68B3FBF2F35843044B6D
:102BD00043F00103184770479C21002040420F003A
:102BE00040830000084B70B5C31A0D4607499B107F
:102BF000044659430648402204F0BBF92B460146DF
:102C00002046BDE870401847C8350020B76DDBB6D8
:102C10004880000073B50C4C0C4A4023041B009301
:102C20000D460B460A49A41061430646094804F0C4
:102C3000CCF9014628B130462B4602B0BDE87040C1
:102C4000184702B070BD00BFC835002037700000C3
:102C5000B76DDBB6488000000022F8B501210546BB
:102C60001046FFF7D5FC114801F09EF80446D0B994
:102C7000286900F0CBF901F0B7F82F690C49384604
:102C800003F038FF031E09DB01263E642D69084965
:102C900005F11C0003F02EFF031E02DA1C4620463D
:102CA000F8BDEE64FBE76FF00404F8E7652D000063
:102CB0000C8400001FB500220123CDE902236C46DD
:102CC000074A6B46CDE9004404F0AEF928B94FF449
:102CD00080420023684602F063F904B010BD00BFD3
:102CE0004970000010B5EFF31184202383F312889C
:102CF000BFF36F8F074A136823F00201DB071160EF
:102D000002D4012004F0D4FA84F31188BFF36F8F4A
:102D100010BD00BF1836002030B4104B0C2202FB4F
:102D2000003301460020D3E90E529863EFF311807F
:102D3000202484F31288BFF36F8F1C6C04F0C0044E
:102D400044F002041C6480F31188BFF36F8F1DB13F
:102D50002B46034830BC184730BC7047C8350020AC
:102D600048800000012810B504460AD003280CD082
:102D700078B9084B1B6C5B070BD1BDE81040FFF71F
:102D8000CBBF00F051F92046F7E7BDE8104000F056
:102D900059B910BDC835002010B4EFF311802022BE
:102DA00082F31288BFF36F8F17490B6843F0020458
:102DB00013F001030C601AD04FF08043D3F80C14C9
:102DC000D3F80C3413F0010311D0EFF3118182F327
:102DD0001288BFF36F8F0D4A136C03F0C00343F0EA
:102DE0000203136481F31188BFF36F8F012380F313
:102DF0001188BFF36F8F1BB110BC0020FFF78CBF91
:102E000010BC012004F04CBA18360020C835002050
:102E1000024AC3B21C2000FB03207047C8350020C3
:102E2000F8B52849BFF35B8F0646012251E8003F01
:102E300041E800200028F9D1BFF35B8F33B9224964
:102E400022484B60CB608A6003F067FE731E012B43
:102E50002CD804F0E6FE044650B1EFF31185202390
:102E600083F31288BFF36F8F01244FF080470EE089
:102E7000174B1B78002BF0D04FF080430222C3F891
:102E800008230546F1E794B1284604F03FF8D7F847
:102E90001824D7F81834D203F5D59B0701D0012E9A
:102EA000F1D14CB185F31188BFF36F8FF8BD0021CC
:102EB000212004F056FFEAE74FF080430222C3F8D6
:102EC0000423F3E7C4350020B4350020E4350020A6
:102ED000553700200D4BBFF35B8F012253E8001FD5
:102EE000002903D143E800200028F7D1BFF35B8F0E
:102EF0000BD1074A0023D360064B53600323936032
:102F0000054B1146186803F008BE7047383600209C
:102F100020360020E12F00001C36002007B50022DB
:102F20000023CDE9002308484FF40032002302F0CB
:102F300055FF064B186803F03BFE054B00221A6054
:102F400003B05DF804FB00BFF82100201C36002010
:102F50003836002073B51D4D1D4CAE684C21F3680A
:102F60002846984770B1002323701A46217809B18A
:102F7000012A1FDD174A138004F0A2F901232370F0
:102F800002B070BD0C2133696A4628469847002874
:102F9000E9D1114A019B93FBF2F3009A03EB820300
:102FA0000C4AB2F900201BB29A1A002AB8BF52424A
:102FB00012B2DBE7094A136801390133217013604B
:102FC00002B0BDE87040FFF7A9BF00BFB8800000A5
:102FD000433700202C37002090D0030030360020EB
:102FE00008B5074804F0AFFD28B904F069F9054BAE
:102FF00001221A7008BDBDE80840034802F0F8B885
:10300000B8800000433700205C210020034B044AB5
:10301000186000231360034A136070471C360020B9
:103020003436002030360020024B00221A70FFF7A1
:1030300051BF00BF43370020014802F007BF00BF67
:10304000F8210020024A136801331360FFF766BFBE
:103050003436002008B50448FEF77CF80248FFF734
:1030600085FD002008BD00BF6D30000073B5104E17
:103070008DF807000446032501220DF10701002009
:1030800001F0C0FC20B101233370204602B070BDB6
:103090003378002BF9D0013D08D004F0C2FD0028A0
:1030A000EAD10021422004F05CFEE5E73570ECE750
:1030B000443700202DE9F043476840F20636D00639
:1030C0003B7C87B002EA060654BFC2F3401C4FF0B7
:1030D000030C01F01F05B6F5837F144645EA43153E
:1030E0008DF803C044D00DD8062E16D005D8A6B151
:1030F000022E3FD06FF0150037E0B6F5807FF9D192
:1031000001260AE040F20222964235D0B6F5407F11
:1031100034D0B6F5007FEDD10226220330D57A688F
:1031200001238B40C2F80835B868A0BB05F01F0327
:103130006D092DD0012D77D13E4A02EB8302C4F3F5
:103140000043D2F8001783F00103C4F3404444EA7B
:10315000430421F4E16144EA8C0421F0070144EACC
:1031600006230B43C2F80037002007B0BDE8F08308
:103170000726D2E70426D0E70526CEE70326CCE7CC
:10318000630341BF01237A688B40C2F80C35CBE75B
:103190004FF0A042D1E70DF10202294604F007FBEF
:1031A00014F4403F80460CD1B868294604F034FB43
:1031B000B8F1000FD8D19DF80210B86800F09CFF5C
:1031C000D2E74FF0000901ABCDE90199CDE904390F
:1031D000CDF80C90B86803AA294604F0BDF948451B
:1031E000C2DB14F4003314D0C4F300449DF8033060
:1031F0008DF80E3084F001048DF80C608DF80D40D0
:10320000B8684B4603AA294604F059FA0028CFDAD9
:10321000AAE7CDE904330DF103030393B86803AAC9
:10322000294604F099F9F1E703F5E07350F82330EB
:10323000FFDE00BF00030050420970B5034602D014
:10324000012A17D070BD0D4E326951680029F9D09E
:1032500003F01F0301250C689D400029F2D08A6805
:103260002A4002D04B68304698472CB1236821464B
:103270001C46F2E7024EE7E72346F8E780800000AD
:103280006480000038B54568A86890B104F0BEFAC3
:10329000014670B9A86804F09DFA044658B9024680
:1032A0000649A86804F080FA224605210620FFF7A7
:1032B000AFF9002038BD6FF00400FBE739320000A1
:1032C000F0B544681646A068227C01F01F0587B05F
:1032D00045EA421500286DD0B6F5001F04D12946F5
:1032E00004F0EDFA002056E06268607CC2F8240524
:1032F00001AA0020B6F5800F0190506037D1B3F1DC
:10330000007F14BF052304238DF804300023CDE98A
:1033100004230393E36823FA01F111F001010DF195
:1033200003073AD1B6F1A07F37D105F01F036A0930
:1033300003F5E07326D0012A3FD1214A52F8233009
:10334000DB072AD4A0683A46294604F030FA163042
:103350001BD00297A06803AA294604F0FDF80028B4
:1033600019DBA0680122294604F058FABAE7B3F144
:10337000C06F05D0B3F1007F14BF01230223C3E760
:103380000323C1E74FF0A042D8E7A068394600F018
:10339000B9FE0028DDDA07B0F0BDA0683A4629463C
:1033A00004F005FA0028D5D19DF80310A06800F0BC
:1033B000A3FECFE76FF08500EDE751F82330FFDE85
:1033C00000030050044A054B9362054A1A6001212C
:1033D00000220320FFF71CB96C2100205436002086
:1033E000003000402DE9F04F89B002AFD0F810A0B6
:1033F000BB6043683A61D3F820B09B8A7B614FF091
:10340000FF324FF0FF3305460C4603F0ACFE0AF1E5
:103410003C03FB60002300220AF13C00002601F07F
:10342000BFFD33463A69964201D300235DE0207A1E
:10343000010700F19B803A692168013696420BD260
:10344000820709D4227D80EA020C0CF0010C02F004
:1034500004025CEA020C24D0002B50D101F060423F
:10346000B2F1005F4ED1D4F80080A3884FF000097C
:10347000BA68CAF85080217A00922846424600F085
:10348000A5F8031E31DB4FF48042F868002301F0F9
:1034900087FD00284BD0284603F07CFE6FF07303B5
:1034A00023E04FF001086268D7F814E003EB020C48
:1034B000F44529D96C468CB0286802A92E4ECA6101
:1034C000C1E905637B690A46C1E9083040F203534C
:1034D0000B852A4B42F8103F002329484FF45151E5
:1034E000FEF7ECF96FF01B03A54628467B6103F05D
:1034F0003EFE7B691C371846BD46BDE8F08F4FF095
:103500000008D0E79846CEE7C00705D40BEB0300D0
:103510007B6004F0E0FC7B6862681A4493B2B8F107
:10352000000F0CD1002B9ED09946D846A0E7DAF8C0
:103530004C30002B1DDB237ADB0702D400230C3434
:1035400070E7C345FAD123460AE0A9EB0201D86827
:103550007B601FFA81F918FA81F104F0BCFC7B68EA
:103560005A689145A3F10C03EFD2E7E76FF08503AA
:10357000BBE76FF00403B8E7DC8F00000600000132
:10358000E082000008B5CA0743680AD4C1F34201CB
:10359000012909D002290FD00A4A0B48012103F062
:1035A000EEFB6FF0150006E09B6A1B684FF0CC72D3
:1035B000C3F82425002008BD9B6A4FF0C8621B6831
:1035C000F6E700BFC2900000E0820000F0B589B0CD
:1035D00047680C461646002112220DF10E001D46CA
:1035E00004F087FC04F001038DF80C30BDF838308E
:1035F0008DF80D30BB8C0495AB4206960AD20A4872
:1036000000930A4A2B46012103F0CCFB6FF01B000C
:1036100009B0F0BDC4F3400282F00102B86A520161
:1036200003A900F0B9FEF3E7E0820000D4900000A7
:10363000B0B5456800AFAB6904469847E869012119
:1036400003F099FD2A69A86A2346294604F0C7F9C0
:10365000002818DA23686C4688B06A460C49CDE920
:1036600005134FF40073ADF81C300A4B42F8103FBD
:10367000094800234FF4E251FEF720F96FF00400EF
:10368000A546BD46B0BD204603F09CFD0020F8E7EE
:103690001B91000003000001E08200002DE9F041D1
:1036A0002C4E002440F2FF15E3B28B4201D30020E0
:1036B00015E050F8247017F4804FC7F3C32CC7F3FC
:1036C00008033ED13F0EAB4208BF4FF0FF330B2F34
:1036D00016F80CC005D00C2F2DD06FF08500BDE87A
:1036E000F081C2F80835BCF1000F01D14FF0060C93
:1036F0005F1C1ED003F01F075B091FD0012B23D1D5
:10370000DFF854E050F824300EEB8707DFF84CE088
:10371000D7F8008708EA0E0EC3F3C038C3F341237D
:103720009B0043EA480343EA0C2343EA0E03C7F82D
:1037300000370134B8E7C2F80C35D4E74FF0A04E9B
:10374000E0E76FF01500CAE707F5E077002353F8CC
:103750002730FFDE7492000000030050F0F8FCFFF9
:10376000014B01221A60704700C000400C29036918
:103770000BD15B6A064907484B4393FBF0F100FB12
:10378000113311605360002070476FF0850070475F
:1037900090D0030040420F00044B00690022C3F8A0
:1037A0000021D3F8003101F0C7BB00BF00C00040CA
:1037B0007FB50569AB6A63B321F040010C292BD1B9
:1037C00005F110064FF0FF324FF0FF33304601F0A5
:1037D000F1FA134B0193A86A03230024694603946A
:1037E000029303F09AF94FF0FF324FF0FF3328466F
:1037F00001F0D6FBA86A03F0DBF90A4BD3F80825E1
:103800006A6201225A60304601F046FB204604B04D
:1038100070BD6FF00A00FAE76FF08500F7E700BFB0
:103820006137000000C0004010B504690020FFF7B8
:10383000EFFAA0624FF0FF320021204604F0B0F909
:1038400004F1100004F0A5F9002201210C20FEF77C
:10385000DFFE0C20FEF7C0FE024B0122C3F804235A
:10386000002010BD00C0004070B5012383400F4A06
:10387000BFF35B8FDC4352E8001F01EA040542E816
:103880000056002EF7D1BFF35B8F4FF48032824099
:103890000748C0F80823BFF35F8FBFF36F8F03EAB9
:1038A0000100003818BF012070BD00BFD8360020CD
:1038B0000010014070B41249D1E90034D01AC31885
:1038C00044F1000422F07F46C1E90034A6F500135C
:1038D000B3F5400F09D20B4B1B681A0A1B069C1943
:1038E000094B42F10005C3E90045EFF311812023A4
:1038F00083F31288BFF36F8F70BC02F077B900BFFB
:1039000010330020DC3600201833002011B3BFF341
:103910005B8F0123104A834052E800CF4CEA030C2E
:1039200042E800C10029F7D1BFF35B8F0B4A4FF487
:1039300080338340C2F80433094BBFF35B8F1B68AD
:10394000BFF35B8FC340DB0742BF064B4FF400322F
:10395000C3F80021704700BFD83600200010014096
:10396000D436002000E100E00D4B1868010A000683
:10397000BFF35F8F0B4BD3F80435181841F10001EA
:10398000B3F5801F0AD2084BD3E90023904271EBB4
:10399000030303D210F1807041F10001704700BFB2
:1039A000DC36002000100140183300202DE9F04FD4
:1039B00085B016461F469DF840A00446FFF754FF09
:1039C0000190FFF7D1FFB04271EB07035ED23E4B8F
:1039D000301A67EB0101984271F1000109D36FF0D1
:1039E000150520460199FFF791FF284605B0BDE86F
:1039F000F08F364B03EB0413D3E902239F4208BF39
:103A0000964254D032494FF4803804F1500508FAF8
:103A100004F8AD00C1F848832046ADB203F0F0FBD6
:103A200026F07F4B05F1804504F5A87305F5883530
:103A3000DC464FF003090293029A2CF07F4341F8D1
:103A40002230C1F84483D1F80435224A6FF00200D5
:103A5000C01A604420F07F40904228D9286868B19D
:103A6000D1F804350393A3EB0B0020F07F40B0F5B1
:103A7000000F1CD9204603F0C3FB039BBAF1000FD3
:103A8000ADD109EB030C09F10109D5E7BAF1000F3B
:103A9000A5D10123104ABFF35B8FA34052E8000F6A
:103AA000184342E800010029F8D1BFF35B8F0749B2
:103AB0000E98230101EB0412C8500F9B5360C2E91A
:103AC000026700258DE700BF010080000033002061
:103AD00000100140FDFF7F00D43600207FB51C4C54
:103AE0001C4BC4F80833C4F848331B4B00254FF077
:103AF000FF304FF0FF31C4F80855C3E902014FF41D
:103B00008033C4F80433154B02264FF400320121F0
:103B1000C4F804631120C3F880212A46FEF778FD1B
:103B20001120FEF759FD0E4A0123A36023601360A4
:103B30000C4B0D4A0093CDE9015500232846FFF7B1
:103B400035FF3046FFF76CF9284604B070BD00BF62
:103B50000010014003000F000033002000E100E0EE
:103B6000D8360020B5380000FFFF7F002DE9F7436D
:103B70002E4CD4F8043399070BD5D4F8043143B153
:103B80002B4A0023C4F80431D4F8043113680133FC
:103B90001360D4F80433DA0343D5BFF35B8F254BAE
:103BA00053E8002F22F0010143E800100028F7D16C
:103BB000BFF35B8FD30702D4D4F840318BB3002519
:103BC000C4F84051D4F84031FFF7CEFEEFF3118234
:103BD000202383F31288BFF36F8F174BD3E902675B
:103BE000B042B94120D34FF0FF304FF0FF31C3E96D
:103BF0000201D3E900981D604FF48033C4F84833C4
:103C0000C4F84051D4F8403182F31188BFF36F8F6C
:103C1000B9F1000F05D0CDF8008032463B460020B8
:103C2000C84703B0BDE8F083A946EDE700100140A6
:103C3000DC360020D43600200033002030B5431C91
:103C4000124C85B005D08442A8BF0446012CB8BFF1
:103C50000124FFF789FE0E4B0C4DD3E90013401AE7
:103C6000B0F5000F10D22218AA4228BF2A465218D7
:103C70004FF0000007490091CDE9010043F1000336
:103C8000FFF794FE05B030BD2A46F0E7FFFF7F0046
:103C900010330020B538000008B5FFF765FE024B71
:103CA0001B68C01A08BD00BF103300204FF08053BE
:103CB000D3F830210D2A55D14FF080410022C1F8B0
:103CC0000C21C1F81021C1F83825304AD3F804047A
:103CD000C2F82005D3F80804C2F82405D3F80C0470
:103CE000C2F82805D3F81004C2F82C05D3F8140440
:103CF000C2F83005D3F81804C2F83405D3F81C0410
:103D0000C2F84005D3F82004C2F84405D3F82404CF
:103D1000C2F84805D3F82804C2F84C05D3F82C049F
:103D2000C2F85005D3F83004C2F85405D3F834046F
:103D3000C2F86005D3F83804C2F86405D3F83C042F
:103D4000C2F86805D3F84004C2F86C05D3F84434CF
:103D5000C2F87035D1F80034DB0709D56FF00103E4
:103D6000C1F800344FF08053D3F830310D2B0CD113
:103D70004FF08053D3F834313BB14FF01023D3F8D8
:103D800008224FF08043C3F85825704700C0004018
:103D9000014B00201B681847E0360020014B1B68D0
:103DA000184700BFE036002010B50C4C237993B9BA
:103DB000012323710A4B2060002818BF184600F029
:103DC00023F850B923680748002BBDE8104008BF0E
:103DD000184600F05BB86FF0770010BDE0360020A9
:103DE000913D00009D3D000008B5064B1B683BB1AE
:103DF0000020FEF7FFFB18B9BDE80840FEF7ECBB5A
:103E000008BD00BFE0360020054B0246187918B9FE
:103E10001A6001221A7170476FF07700704700BF77
:103E2000E83600204FF080430022C3F80021D3F889
:103E30000021094901221A60096811B1C3F804235D
:103E40007047D3F80021002AFBD00022C3F80021DC
:103E5000D3F80031704700BFE83600204FF08043B0
:103E6000D3F80423D2070DD5D3F8002152B1002294
:103E7000C3F80021D3F800210122C3F80823024B24
:103E80001B681847704700BFE8360020074A1379BF
:103E90004BB901215371106011714FF080421846E7
:103EA000C2F8183570476FF077007047F036002081
:103EB00010B54FF080431B4CD3F81814D3F81824D6
:103EC00011F4803F15D0900701D003F020FA4FF095
:103ED00080430022C3F81825C3F80421D3F8042135
:103EE00001229A60226872B9D3F80421002AFBD01B
:103EF00011E0D3F81424D107E9D5D3F81C24920794
:103F0000E3D122681AB10222C3F8042310BDD3F80A
:103F10000421002AFBD00022C3F80421D3F8043185
:103F2000F4E700BFF03600204FF08043D3F80C14C4
:103F3000D3F80C24C80322D5D10720D5D3F81824F0
:103F4000D2031CD5114A517901F0FF00D1B9C3F851
:103F50000C01D3F80C11012151711961126822B1C1
:103F60000822C3F8042300207047D3F80C21002A4C
:103F7000FBD00022C3F80C21D3F80C31F3E76FF02B
:103F8000760070476FF00F00704700BFF0360020DA
:103F9000F8B54FF08043144ED3F80443012704F0E2
:103FA0001A04002504B9F8BDB4FA84F0C0F11F006A
:103FB000830003F580739BB203F1804307FA00F29C
:103FC000196892B224EA02040029EBD01D601B6834
:103FD0004FF08043082AC3F80823336808BF75717F
:103FE000C0B29847DEE700BFF0360020036803F058
:103FF0001F025B09026004D0012B034818BF002098
:1040000070474FF0A040704700030050034A430937
:1040100000F01F00D35C1844C0B270477C920000CF
:10402000024611F0010030B515D18B07C1F34000F5
:1040300022D51249D1F8200550604FF08052C1F8C6
:104040002005D2F830210D2A08BFD1F820250038EC
:1040500018BF012010E04FF0A0444FF08055D4F875
:1040600020351360C4F82035D5F830510D2D08BF28
:10407000D4F82045002BD8D030BD00BF000300503D
:10408000F7B504460846FFF7C1FF04EB40060D46AE
:10409000B38ADB072AD5204603F03CFA294620469E
:1040A00003F0A8F950B1204603F0BAF9276807EBEE
:1040B00080000023C0F81035C0F81035294620468E
:1040C00003F0D7F90021B18201A80195FFF78EFF17
:1040D000019B00EB8300074BD0F80027134043F00F
:1040E0000203C0F80037084603B0F0BD6FF01500BA
:1040F000FAE700BFF0F8FCFF014803F0B4B800BFD6
:10410000A021002010B504480C4603F08EF80028CA
:10411000A4BF2070002010BDA02100202DE9F04F89
:10412000074689B057F8049BD9F80413C9B28346EF
:10413000082241F00041484603F0C4F9051E2FDA79
:104140000023032106A8CDE90633FFF769FF634B7F
:1041500001930DF118084FF0000A019A604912F816
:10416000013B0192DA0803F007038A5C22FA03F3A9
:10417000DB071CD40AF10103022B08F104084FF0FD
:10418000010AEAD14FF000410022484603F09AF9B3
:10419000032106A8FFF744FF0028D8D125F00045E9
:1041A0000124002D40F0848009B0BDE8F08F4D4B14
:1041B00053440293D8F80060002EDBD0029B96FA9D
:1041C000A6F61C78B6FA86F646EA44142046FFF7AF
:1041D0001DFF0BEB4000F208818A18F802000594DD
:1041E000C1F382030393009306F00706012303FA49
:1041F00006F620EA060008F8020005A8FFF7F6FE1A
:10420000059A039B02F5E07211F0100F50F822603E
:10421000C6F3014633D0009A3846214603F00AF926
:1042200005A80594FFF7E2FE059B03F5E073F6B2DF
:1042300050F82330C3F301439E4207D100212046AA
:1042400003F0C9F83146204603F0C5F805A80594E7
:10425000FFF7CCFE059B012202FA03F3C0F82035DC
:104260004FF08053D3F830310D2B01BFD0F82035FB
:10427000D0F82035D0F82035D0F820359AE7022E36
:1042800014BF022103212046039303F0A4F8039BEB
:10429000032B03D0022E07D1012BD7D1009A214640
:1042A000384603F0C7F8D1E7032ECFD1022BF4E74D
:1042B00095FAA5F3B3FA83F304FA03F225EA0205AB
:1042C00003F5A2720BEB430359F82220B3F87010E8
:1042D000C2F30142384603F0ADF862E78C92000069
:1042E000788400008C920000827B002A38D1036819
:1042F00003F01F015B0922D0012B26D1194A02EBE2
:1043000081021949D2F800370B4043F4C16343F0EE
:104310000403C2F80037436803F01F005B0911D0A3
:10432000012B17D10F4A02EB8002D2F800370B4065
:1043300043F4C16343F00403C2F8003770474FF001
:10434000A042DCE74FF0A042EDE701F5E07152F842
:104350002130FFDE00F5E070002353F82030F8E74D
:10436000704700BF00030050F0F8FCFF03680949E4
:104370000022C260C3F80813D3F8001221F4BC5124
:10438000C3F80012C3F80025012380F8263080F816
:104390002820704702029C012DE9F047002380F895
:1043A00027304B68046805460E46174633B1CB6884
:1043B00003F06043B3F1005F40F040813378023B8B
:1043C000012B06D8336903F06043B3F1005F40F07E
:1043D00035819C4BC4F8083395F8283003F0FF0270
:1043E0003BB1EB68C4F804336FF00F084046BDE8FA
:1043F000F08707F01403B3FA83F35B0985F82830DC
:10440000337885F82430737885F82530F3682B618C
:1044100073686B613369AB61B368EB61C7F3001319
:1044200085F829302F627378C4F88835C4F8602184
:10443000D4F86031C4F84821D4F84831C4F82421B4
:10444000D4F82431C4F80421D4F8043117F001035E
:1044500018BF0123C4F8503517F0020318BF012319
:10446000C4F840353378032B00F28180DFE803F095
:104470005E764A024FF48073C4F80032D5E9042313
:10448000C4F84425C4F848350123A3604FF48011D3
:10449000204603F058FA0028F8D1D5E90623C4F8DD
:1044A0004425C4F848354FF48023EB604FF00008F2
:1044B00017F0080910D13378032B0DD0012B6A684F
:1044C0006BD12360002A55D073682BB96B68002B21
:1044D00000F09280012363616B68002B00F08C80F8
:1044E000780744BF0023EB6079065EBFEB6843F0BA
:1044F0000203EB60EB6843F40073EB60EB68C4F815
:10450000043373E7D5E90423C4F84425C4F84835D7
:10451000D5E90623C4F83425C4F838354FF484535C
:10452000C4F80032012323620223BEE7D5E9042345
:10453000B806C4F84425C4F848354BBF4FF480731F
:104540004FF40073C4F80032C4F800324CBF4FF48B
:1045500080230223EB6001232362A7E7D5E904232C
:10456000C4F83425C4F838354FF48053D8E76FF0D9
:1045700015089DE76A6902B96361DFF8CC904FF0D6
:10458000010A3249204603F0DEF9810501D5C4F85D
:1045900014A010EA090FF4D096E70123A360002AC3
:1045A00092D16A6932B3DFF8A0A019EA0A0F8BD161
:1045B0002649204603F0C7F910F4007F8146F4D065
:1045C0004FF08071204603F0BEF9D4F8003208B1F4
:1045D0009A0505D401222262626140B14FF00009C0
:1045E000DB05E2D54FF48021204603F0ACF94FF013
:1045F0000009DAE76361D6E7D4F8C434C4F8C434F8
:10460000002285F828206BB19A075ABF03F00108F1
:10461000A8F18C086FF00D0813F0040F18BF6FF0AD
:104620000A08E3E67B063FF5E1AE291D204603F0CC
:1046300048F9002808BF6FF08B08D7E66FF00C0828
:10464000D4E600BF02029C01020004000202040042
:1046500070B5056886B002210446284603F073F958
:104660004FF400710646284603F06DF9D0B1D6B973
:10467000E368C5F808330223E360E368C5F8043350
:104680004FF08071284603F05EF918B1D5F800327A
:104690009B0502D401232B626B61012384F8273030
:1046A00006B070BDAEB3236A5E060AD494F8273014
:1046B0003BB9211D284603F004F980F0010084F87D
:1046C0002700236A13F004033BD1C5F86031D5F805
:1046D0006021C5F85C31D5F85C3194F8293013B10C
:1046E00094F8273013B30023C5F80032E360314B50
:1046F000C5F8083345F30733002B17DB5A090121AE
:1047000003F01F03994002F160032B4A42F8231083
:104710000CE04FF48021284603F015F994F824307A
:10472000002B2FD194F82930002BDDD0A38CADF8CD
:1047300004302369049363690293A3690593E369D1
:104740000393D5F8C434C5F8C43498072CD459075A
:104750002CD4DA072CD494F827309B00DBB28DF8E8
:10476000003094F829300BB984F82830236A5B07AD
:1047700003D594F82730002B92D0D4E90131684654
:1047800098478DE74FF40073C5F8003240F20223DA
:10479000E36003F1CE73C5F80833E368C5F804336A
:1047A0000123AB602B627BE70123D8E70223D6E726
:1047B0000323D4E702029C0100E100E0036803F058
:1047C0001F025B09026004D0012B034818BF0020C0
:1047D00070474FF0A040704700030050F7B5064601
:1047E00003F028F9084603F025F901A80196FFF720
:1047F000E5FF019B00EB83000C46D0F800372D4904
:10480000019440F20D650B402B43C0F8003701A81E
:10481000FFF7D4FF019B00EB83000127D0F800379E
:104820000B402B43C0F80037042002F0FCFC0925A4
:1048300001A80194FFF7C2FF019AD0F81035D340C8
:10484000DB0715D401A80196FFF7B8FF019B07FA13
:1048500003F3C0F80C35042002F0E5FC304603F009
:10486000E9F8013D042002F0DEFC15F0FF05DFD180
:1048700001A80194FFF7A2FF019A01239340C0F819
:104880000C35042002F0CFFC204603F0D3F80420BE
:1048900002F0C9FC01A80194FFF790FF019AD0F83B
:1048A0001035D34013F0010F0CBF6FF08B000020C8
:1048B00003B0F0BDF0F8FCFF08B5124BA8220021B0
:1048C000184603F016FB032202610F4942610F4AAA
:1048D0008161C2614FF40052026200228262426230
:1048E000C26201660A494166102181660949026770
:1048F0000346C266426711F8010D98540132102A2E
:10490000F9D108BD102000205391000010000020B4
:10491000000000209E9200002DE9F74FDFF888800C
:10492000182606FB008700FB066646447D6AD7F81A
:1049300028C07368AC4581468B46144603EB0500DE
:1049400025D83B6AA3EB050A0AF1FF3E724507D85A
:104950002C4403F0C0FA7C62012003B0BDE8F08F64
:10496000E64472451ED85246019303F0B4FA019B07
:104970002C44E41A05D0706822460BEB0A0103F0C0
:10498000AAFA182303FB0988C8F82440E4E70CF1CD
:10499000FF3CACEB050C944504D3254403F09BFA93
:1049A0007D62D9E70020D8E710200020F8B5144B2D
:1049B000182700FB07751D4407FB00330E46DB6A12
:1049C000012B14460AD0022B14D023B9284603F039
:1049D0003EF8844208D900242046F8BD284603F05A
:1049E00036F8844228BF044622463146284603F062
:1049F00037F8F1E72846BDE8F84003F04CB800BFAF
:104A000010200020F8B50B4B1B78532B04460E46A4
:104A1000174601D0FFF750FF03F06CF83A46054601
:104A200031462046FFF7C2FF0446284603F06AF8E5
:104A30002046F8BD10200020034B182202FB003353
:104A40009A6A586A801A70471020002010B4084AE9
:104A500008490023C85C12F8014D844204D1013397
:104A6000102BF7D110BC704710BCFFF725BF00BF5B
:104A70009E9200001020002010B50446FCF750FE66
:104A80000348044A012102F07AF9204603F066F84F
:104A9000088300005C9100002DE9F843044600AF54
:104AA0000D46EFF31188202383F31288BFF36F8F35
:104AB00004282A4A98BF2A4B9668117C94BF53F861
:104AC0002030284BE9468AB06A462748CDE90731AD
:104AD00040F20133ADF82430244BCDE9050442F80F
:104AE000103F234800234FF43151FCF7E7FECD4639
:104AF00045B1EB69C3F3080323B11E4A1C480121E9
:104B000002F03DF92EB1304603F094F808B1037875
:104B100003B91948E9468AB06A46184B0790CDE9AF
:104B2000053640F20133ADF82030154B42F8103F06
:104B300000230F484FF41151FCF7C0FE2946CD4623
:104B40002046FFF799FF88F31188BFF36F8F304637
:104B5000FDF7FEFDBD46BDE8F88300BFF836002036
:104B60007C8400006B910000819100000500000131
:104B700008830000A991000079910000CA9100000B
:104B80000400000138B50A4B53F82040013053F8B7
:104B90002050A54200D838BD606830B1037EDB07E5
:104BA00001D402F0B8FF0834F3E723689847FAE726
:104BB0009084000070B52A4B2A4C2B4D86B0012200
:104BC00003201A70FFF7DEFF03F084F90420FFF7DB
:104BD000D9FF2646AE4204F130040FD300F04EFD5B
:104BE000204CAC4226D300F05DFDFBF79DFC1F4A34
:104BF000938923F00103938106B070BD54F80C3CF7
:104C0000059354F8103C049354F8143C039354F85F
:104C1000183C029354F81C3C019354F8203C009338
:104C200054E90A2354E90C0100F028FB54F8303C05
:104C30005E65CEE7D4E90A23B3F1FF3F08BFB2F1C6
:104C4000FF3F05D052EA0301206803D103F0A2F828
:104C50003034C6E70649183000F038FFF8E700BFE7
:104C6000553700205482000054820000A0330020F9
:104C7000117D000070B5002386B00122CDE9042328
:104C8000134E144D01930F22CDE902321249142321
:104C900003FB005506EBC01604464FF4C07000FB42
:104CA00004110E4B00954FF4A072304600F0E6FA66
:104CB000337C0B4AEE6023F0040333744FF4046337
:104CC00004FB033313442C746B6006B070BD00BF4B
:104CD00020330020F8360020004300206D7B0000C8
:104CE000C03A00207FB50020FFF74CFF294B83F32B
:104CF0000888294C636943F4007363610025E0234D
:104D000084F82230E57725766576A57684F82050FC
:104D1000636A43F4E023636284F82350FDF7C6FB23
:104D2000FDF700FD4FF0FF33A362E362FDF730FEB5
:104D3000FDF778FDFCF74EFC1848194C00F016FB07
:104D40000120FFF71FFF0220FFF71CFF00F0D4FC3B
:104D5000144B15495C61154B059301234FF4806298
:104D6000CDE90353CDE90155114B0095204600F0E4
:104D700085FA237C064623F004032046237402F0C0
:104D800093FF2846FFF776FF094A31462046FDF794
:104D9000ABFC00BF0043002000ED00E02034002009
:104DA000A0330020F8360020804400202C92000020
:104DB000B54B00002DE9F341044617461E46EFF3BC
:104DC0001188202383F31288BFF36F8F304BC268A2
:104DD0009B6872B18068984217D057EA060216D1D4
:104DE00088F31188BFF36F8F6FF00F0002B0BDE83A
:104DF000F08193F90E1021610132C4E9023288F387
:104E00001188BFF36F8F0020F0E72169F3E793F972
:104E10000E1090F90E30994230DA9942A8BF194627
:104E200002F0AFFE0546CDE900761A48224641461B
:104E300000F082FB0028E6D0EFF31186202383F3F5
:104E40001288BFF36F8FA068D0B1236821699C429C
:104E50000AD04BB193F90E309942A8BF19466FF0B2
:104E60007F039942B8BF194602F08BFE40B1094852
:104E7000314602F073FF6FF00A00B7E70025D2E772
:104E8000002DF4D186F31188BFF36F8FF3E700BFD5
:104E9000F836002056370020F8B583680546002B09
:104EA0003FD0234A926893423ED1C368012B03D975
:104EB000013BC3600020F8BDEFF31187202383F38B
:104EC0001288BFF36F8F0169806802F05AFE2C6868
:104ED000A54207D10023C5E9023387F31188BFF348
:104EE0006F8FE7E7002CF5D0D4E9003213605A60E9
:104EF000237C002623F002032374C4E90066A66025
:104F000004F1180002F09FFFAC6094F90E302B61A1
:104F10002046A66702F0C8FE0648394602F01EFF8A
:104F2000C8E76FF01500C6E74FF0FF30C3E700BFDA
:104F3000F83600205637002070B5EFF31186202395
:104F400083F31288BFF36F8F0468A0421AD0CCB1EC
:104F5000D4E9003213605A60237C002523F0020359
:104F60002374C4E90055A56004F1180002F06BFF3A
:104F70002046A56702F098FE31460848BDE870401B
:104F800002F0ECBED0E902329A4218BF01338360CE
:104F900086F31188BFF36F8F70BD00BF56370020B6
:104FA00013B5EFF31181202484F31288BFF36F8FC0
:104FB000846844B1013C846081F31188BFF36F8F32
:104FC000002002B010BD52EA030406D181F311881B
:104FD000BFF36F8F6FF00F00F3E7CDE900230246B8
:104FE000014800F0A9FAECE7563700202DE9FF410F
:104FF000544E04462027EFF3118887F31288BFF33D
:105000006F8FD4F88450F5B9022104F19C0002F0AE
:10501000D3FD002870D004F1940500220121284618
:1050200002F0D8FE0028F8D1002302934FF0FF329F
:105030004FF0FF33CDE90023414604F18C02424892
:1050400000F084FCD7E7D4F888202B68C4F88430BB
:10505000954208BFC4F88830D4F89C3043F002036E
:10506000C4F89C30EB6823F0040343F00103EB60C9
:105070006B6888F31188BFF36F8F28469847EFF36A
:10508000118887F31288BFF36F8FEB68D80623F07F
:1050900001023ED4EA60EB689A0717D5306823F026
:1050A0000203EB6090B10368002178B14268954239
:1050B0003DD10368002934D172683360904200D139
:1050C0007360002340F8083BFFF736FFD4F89C30AC
:1050D00023F00203C4F89C30DB0530D4D4F88430CC
:1050E000003B18BF012388F31188BFF36F8F002B9B
:1050F00081D000F009FB7EE7D4F89C30D90693D527
:10510000C4F89C0088F31188BFF36F8F04B0BDE82A
:10511000F08123F01103EB6005F11000FFF70CFFA5
:10512000B9E70B607368984208BF7160C9E7014630
:105130001BB11A6818461346B7E71A46FAE7002368
:10514000D1E700BF1837002056370020F8B5C368F4
:105150009A0704460E46C3F3400542D45F0742D483
:105160000B680BB983680B60E368D80744BFA3687A
:10517000336037684CBF0225012557B31B4B9A6833
:10518000D7F880309A421ED102F04BFD80F001002A
:10519000C0B2D7F89C30D907C3F380021CD5F2B156
:1051A000F8B100232360D7F8883073B9C7E92144E8
:1051B000384602F00CFDE36843F00403E360336813
:1051C000A3602846F8BD0020E3E71C60C7F88840CC
:1051D000EEE76FF0150506E06FF0120503E01B0720
:1051E000DFD56FF00F0500233360EAE7F8360020C3
:1051F0000146014802F005BDC0340020F0B589B079
:1052000004460020C4E921000E9D04F18C00C4E98D
:10521000230004F19400C4E9250055B3287900283F
:1052200040F2011008BF0120C4F89C0000204FF09C
:10523000FF364FF0FF37CDE90330CDE90100CDE96E
:1052400006670D4B0094204600F064F855B12968BC
:1052500011B1204602F0EBFC6B791BB1A38943F03E
:105260000103A381204602F095FDC4F8804009B0F7
:10527000F0BD0120D8E700BFED4F00002DE9F0435D
:10528000073285B022F007020E461F461099818131
:1052900000F158037F32C0E916330446002322F0A0
:1052A0003F020421836001743F2A0F98A073C4E970
:1052B0000633E37306F14009A2F1400805D883F3F1
:1052C0001188BFF36F8F084602DFB51829462046C4
:1052D000FCF7A0FE07300E9B20F00700A066C4E993
:1052E000189802930D9B01932D1A0C9B00932A464C
:1052F0003B4631462046FDF7C5F900236365044B64
:105300009B6803B1DB6EE366284605B0BDE8F08319
:10531000F8360020F0B587B000250595109D04955E
:105320000F9D03950E9D0295DDE912760D9D019569
:105330000C9D00950446FFF7A1FFB6F1FF3F08BFA3
:10534000B7F1FF3F05D056EA070305D1204602F02A
:1053500021FD204607B0F0BD3A46334604F118005F
:10536000014900F0B3FBF4E7117D00000123037451
:1053700083810023C0E91833C366014B98607047EE
:10538000F8360020094A93686FF00A0199670849C6
:1053900058674B6843F080534B60002383F31188B8
:1053A000BFF36F8F9368986F704700BFF836002087
:1053B00000ED00E070B590F91020037C002A2FDB8F
:1053C000D9062DD11A4C63F07F032246037452F89C
:1053D000183FE169934207D1C0E900210860E0610C
:1053E0000FE09942F8D01B68002BF5D093F90E60BE
:1053F00090F90E50AE42F4DD5968C0E90031086002
:105400005860A569954200D005B9E568A3681A7C83
:10541000D20606D1DA897F2A03D9AA690AB963615B
:1054200070BDAB4202D0284600F0D2FA6561F7E7C2
:10543000F836002038B590F91020037C002A014688
:1054400004DA03F07F03037402F0F6FB0D4D2A46E5
:10545000AB6852F8184F944200D004B9EC688B4204
:1054600007D01A7CD20604D1DA897F2A01D9A26931
:105470002AB1A34202D0204600F0AAFA23466B616B
:1054800038BD00BFF8360020B3F1FF3F08BFB2F1CE
:10549000FF3F03D00249183000F018BB704700BF2F
:1054A000117D0000034648B9EFF3058232B9064A80
:1054B00051699268914201D0FFF764BF83F311886C
:1054C000BFF36F8F704700BFF836002038B5184C17
:1054D000A168E0690B68814214BF1A46002249683E
:1054E0000B605960A368E1692AB9124AC3E9002137
:1054F0000B60E3610AE092F90E5093F90E008542C9
:1055000012DD5168C3E900210B605360A569094BA6
:105510009D4200D005B9E568A3689D4202D02846A7
:1055200000F056FA656138BD8A42DED01268DBE7CA
:10553000F836002010370020F8B50E4B0C46114607
:105540000D4A98681060DDE90667EFF311822022AA
:1055500082F31288BFF36F8F9D68284602F07EFBAE
:10556000284632463B46FFF78FFF2046BDE8F8400D
:10557000FFF708BFF836002020370020F8B50446B2
:10558000EFF31187202383F31288BFF36F8F037C1F
:1055900003F01F02002A0CBF0126002649B235D1B4
:1055A00003F07F03037402F047FB294D037C8173F2
:1055B00063F07F032A46037452F8183FE869934268
:1055C00007D1C4E900200460EC610DE09842F8D0F6
:1055D0001B68002BF5D093F90EC08C45F6DD596899
:1055E000C4E900310C605C60AC69944200D004B93D
:1055F000EC68AB689C4202D0204600F0E9F96C618F
:1056000087F31188BFF36F8F3046F8BD9B071CD519
:10561000856802F011FB81732B689D4209D16B688C
:10562000C4E900531C606C60EAE76A689A42F6D0ED
:105630001B68002BF3D093F90E208A42F5DD5A68DF
:10564000C4E9003214605C60DAE78173D8E700BF18
:10565000F8360020034648B9EFF3058232B9064A0E
:1056600051699268914201D0FFF78CBE83F3118893
:10567000BFF36F8F704700BFF8360020EFF3118142
:10568000202383F31288BFF36F8F054B9A68D37B77
:10569000013BD37381F31188BFF36F8F704700BF55
:1056A000F836002070B5EFF31186202383F31288BB
:1056B000BFF36F8F0F4DAB68DA7B0132DA732A4686
:1056C00052F8184F944200D004B9EC681A7CD20604
:1056D00004D1DA897F2A01D9A2692AB19C4202D079
:1056E000204600F075F923466B613046BDE87040F6
:1056F000FFF7D8BEF8360020024B03F11802C3E9C9
:1057000006227047F836002070B5EFF3118620238B
:1057100083F31288BFF36F8F1A4CA168E0690B689E
:10572000814214BF1A46002249680B605960A36881
:10573000E1692AB9144AC3E900210B60E3610AE078
:1057400092F90E5093F90E00854216DD5168C3E9B7
:1057500000210B605360A5690B4B9D4200D005B939
:10576000E568A3689D4202D0284600F031F96561E2
:105770003046BDE87040FFF705BE8A42DAD01268B5
:10578000D7E700BFF836002010370020F8B550EA00
:10579000010306460C4603D1FFF7B6FF0020F8BD13
:1057A000EFF31187202383F31288BFF36F8F124D1D
:1057B000124BA8681860FFF73DFEA8681049234601
:1057C0003246183000F082F9AA68137C43F00403D3
:1057D000137404463846FFF7D5FDAB68D3E90A23B6
:1057E000B3F1004F08BF002AD8D102F061FB201AA4
:1057F00020EAE070D3E700BFF83600202037002011
:10580000117D0000014B9868704700BFF8360020FA
:105810002DE9F84304468789EFF31186202383F3AB
:105820001288BFF36F8F037C190705D586F31188A3
:10583000BFF36F8FBDE8F883D90943F008026FD139
:105840000274A36813B1204602F0FEF904F11800B7
:1058500002F0F9FAA56D04F15808A84511D04FF0EF
:10586000000975B1284602F0EFF905F1180002F0C1
:10587000EAFAC5F878902846FFF79CFDA56DA84583
:10588000EFD1DFF8BC80D8F808309C4250D1EFF35C
:105890000589B9F1000918BF4FF00109D8F818506F
:1058A000284A954200D00DB9D8F80C50AB4202D02E
:1058B000284600F08DF82046C8F8145001F00FFB80
:1058C000B9F1000F02D02048FFF750FDD8F808309A
:1058D0009C4230D1EFF305836BBBA289D20711D56F
:1058E00086F31188BFF36F8F83F31188BFF36F8F37
:1058F0000423184602DFEFF31186202383F3128876
:10590000BFF36F8F3046FFF73DFDFB0792D50023B5
:1059100083F31188BFF36F8F0423184602DF89E7F2
:1059200003F07F0343F00803037402F085F988E76E
:105930004FF00009B2E786F31188BFF36F8FE4E7F9
:10594000F83600201037002020340020D3B5DDE9E0
:105950000667089CCDE90067FFF7EEFD1CB1034B1D
:105960009B685B69236002B0D0BD00BFF8360020A1
:10597000027C12F01F02034610D10A4988420DD062
:105980000949086868B1D9897F2909D893F90E2097
:10599000064B1B689A42B8BF002070470020704732
:1059A0001046704720330020A42100202437002017
:1059B000044BC01A044BC0105843044B01221A5424
:1059C000704700BFA0340020ABAAAAAA5637002017
:1059D00070B50C4B0C4D1E7CFFF7CAFF182303FB60
:1059E00006550446284602F02EFA084B00229A5526
:1059F0003CB1621E28460649BDE87040D31700F04E
:105A000065B870BDF8360020A0340020563700205D
:105A1000B159000038B5EFF31185202383F31288C4
:105A2000BFF36F8F0F4B104A9C681068A04206D1DD
:105A3000FFF7CEFF85F31188BFF36F8F38BD0021CC
:105A40001B7C1160094AD35C002BF3D02046FFF782
:105A50008FFF0028EED0237CDB0601D1FFF736FD57
:105A60002046E5E7F8360020203700205637002092
:105A7000024B1868984208BF00207047A8210020F8
:105A8000034B1B680BB9FEF707B90020704700BF36
:105A90002837002030B570B10B4B5B6898420AD0B4
:105AA000036843B1D3E90421D0E90445121941EB5D
:105AB0000501C3E90421D0E9003213605A600023D4
:105AC000C0E9003330BD00BFA8210020B3F1FF3F83
:105AD00008BFB2F1FF3F2DE9F84F0446994615463D
